:100000000C942A000C94CF030C943C000C943C00FC
:100010000C943C000C943C000C943C000C943C0070
:100020000C943C000C943C000C943C000C943C0060
:100030000C943C000C9492040C943C000C943C00F6
:100040000C943C000C943C000C943C000C943C0040
:100050000C943C0011241FBECFE5D8E0DEBFCDBF1D
:1000600010E0A0E6B0E001C01D92A336B107E1F7B1
:100070000E9467040C94BE040C940000DF93CF939D
:10008000CDB7DEB727970FB6F894DEBF0FBECDBF52
:1000900089836A834B838A81883008F0ECC08B8126
:1000A000882309F075C08981282F30E03F832E8393
:1000B0008E819F818230910561F12E813F812330B5
:1000C000310534F48E819F818130910569F0D3C070
:1000D0002E813F812330310589F18E819F818430CB
:1000E000910509F440C0C7C0AAE3B0E0EAE3F0E03C
:1000F0008081482F8A81282F30E081E090E0022E15
:1001000002C0880F991F0A94E2F7809584238C938C
:10011000B2C0A7E3B0E0E7E3F0E08081482F8A8136
:10012000282F30E081E090E0022E02C0880F991F56
:100130000A94E2F7809584238C939DC0A4E3B0E0F9
:10014000E4E3F0E08081482F8A81282F30E081E0CD
:1001500090E0022E02C0880F991F0A94E2F7809562
:1001600084238C9388C0A1E3B0E0E1E3F0E08081D8
:10017000482F8A81282F30E081E090E0022E02C0D3
:10018000880F991F0A94E2F7809584238C9373C09B
:100190008B81813009F06FC08981282F30E03D8349
:1001A0002C838C819D818230910551F12C813D8180
:1001B0002330310534F48C819D818130910561F0CB
:1001C0005AC02C813D812330310571F18C819D8194
:1001D00084309105E9F14FC0AAE3B0E0EAE3F0E032
:1001E0008081482F8A81282F30E081E090E0022E24
:1001F00002C0880F991F0A94E2F7842B8C933BC0AE
:10020000A7E3B0E0E7E3F0E08081482F8A81282F60
:1002100030E081E090E0022E02C0880F991F0A941E
:10022000E2F7842B8C9327C0A4E3B0E0E4E3F0E092
:100230008081482F8A81282F30E081E090E0022ED3
:1002400002C0880F991F0A94E2F7842B8C9313C085
:10025000A1E3B0E0E1E3F0E08081482F8A81282F1C
:1002600030E081E090E0022E02C0880F991F0A94CE
:10027000E2F7842B8C9327960FB6F894DEBF0FBE5F
:10028000CDBFCF91DF910895DF93CF9300D000D001
:10029000CDB7DEB789836A838981282F30E03C831C
:1002A0002B838B819C8182309105D9F02B813C81FD
:1002B0002330310534F48B819C818130910561F0CC
:1002C0001EC02B813C812330310581F08B819C81C4
:1002D0008430910581F013C0EAE3F0E08A818083E5
:1002E0000EC0E7E3F0E08A81808309C0E4E3F0E038
:1002F0008A81808304C0E1E3F0E08A8180830F90EB
:100300000F900F900F90CF91DF910895DF93CF93CF
:10031000CDB7DEB727970FB6F894DEBF0FBECDBFBF
:1003200089836A834B838A81883008F0ECC08B8193
:10033000882309F075C08981282F30E03F832E8300
:100340008E819F818230910561F12E813F81233022
:10035000310534F48E819F818130910569F0D3C0DD
:100360002E813F812330310589F18E819F81843038
:10037000910509F440C0C7C0ABE3B0E0EBE3F0E0A7
:100380008081482F8A81282F30E081E090E0022E82
:1003900002C0880F991F0A94E2F7809584238C93FA
:1003A000B2C0A8E3B0E0E8E3F0E08081482F8A81A2
:1003B000282F30E081E090E0022E02C0880F991FC4
:1003C0000A94E2F7809584238C939DC0A5E3B0E066
:1003D000E5E3F0E08081482F8A81282F30E081E03A
:1003E00090E0022E02C0880F991F0A94E2F78095D0
:1003F00084238C9388C0A2E3B0E0E2E3F0E0808144
:10040000482F8A81282F30E081E090E0022E02C040
:10041000880F991F0A94E2F7809584238C9373C008
:100420008B81813009F06FC08981282F30E03D83B6
:100430002C838C819D818230910551F12C813D81ED
:100440002330310534F48C819D818130910561F038
:100450005AC02C813D812330310571F18C819D8101
:1004600084309105E9F14FC0ABE3B0E0EBE3F0E09D
:100470008081482F8A81282F30E081E090E0022E91
:1004800002C0880F991F0A94E2F7842B8C933BC01B
:10049000A8E3B0E0E8E3F0E08081482F8A81282FCC
:1004A00030E081E090E0022E02C0880F991F0A948C
:1004B000E2F7842B8C9327C0A5E3B0E0E5E3F0E0FE
:1004C0008081482F8A81282F30E081E090E0022E41
:1004D00002C0880F991F0A94E2F7842B8C9313C0F3
:1004E000A2E3B0E0E2E3F0E08081482F8A81282F88
:1004F00030E081E090E0022E02C0880F991F0A943C
:10050000E2F7842B8C9327960FB6F894DEBF0FBECC
:10051000CDBFCF91DF910895DF93CF9300D000D06E
:10052000CDB7DEB789836A838981282F30E03C8389
:100530002B838B819C8182309105D9F02B813C816A
:100540002330310534F48B819C818130910561F039
:100550001EC02B813C812330310581F08B819C8131
:100560008430910581F013C0EBE3F0E08A81808351
:100570000EC0E8E3F0E08A81808309C0E5E3F0E0A3
:100580008A81808304C0E2E3F0E08A8180830F9057
:100590000F900F900F90CF91DF910895DF93CF933D
:1005A00000D000D00F92CDB7DEB78A836B8319825B
:1005B0008A81282F30E03D832C834C815D8142303D
:1005C000510541F18C819D818330910534F42C815A
:1005D0003D812130310561F052C04C815D81433055
:1005E000510551F18C819D8184309105B9F147C04D
:1005F000E9E3F0E08081282F30E08B81882F90E0C4
:10060000A90102C0559547958A95E2F7CA01817004
:10061000898335C0E6E3F0E08081282F30E08B81CC
:10062000882F90E0A90102C0559547958A95E2F779
:10063000CA018170898323C0E3E3F0E08081282F21
:1006400030E08B81882F90E0A90102C05595479535
:100650008A95E2F7CA018170898311C0E0E3F0E076
:100660008081282F30E08B81882F90E0A90102C083
:10067000559547958A95E2F7CA01817089838981EA
:100680000F900F900F900F900F90CF91DF910895E2
:10069000DF93CF93CDB7DEB7ABE5B0E0EBE5F0E0AD
:1006A000808180648C93A5E5B0E0E5E5F0E0808191
:1006B0008E7F8C93A5E5B0E0E5E5F0E08081826077
:1006C0008C93CF91DF910895DF93CF93CDB7DEB7B1
:1006D000ABE5B0E0EBE5F0E0808180688C93A5E5C8
:1006E000B0E0E5E5F0E0808188608C93A5E5B0E0BE
:1006F000E5E5F0E080818B7F8C93CF91DF910895C9
:10070000DF93CF93CDB7DEB7ABE5B0E0EBE5F0E03C
:10071000808180628C93A4E5B0E0E4E5F0E0808124
:1007200080648C93CF91DF910895DF93CF93CDB701
:10073000DEB7AFE5B0E0EFE5F0E0808180688C9354
:10074000CF91DF910895DF93CF93CDB7DEB7AFE5BB
:10075000B0E0EFE5F0E080818F778C93CF91DF916F
:100760000895DF93CF9300D00F92CDB7DEB79B8370
:100770008A8381E089838A819B81009739F08A810D
:100780009B81909361008093600002C082E0898326
:1007900089810F900F900F90CF91DF9108951F9254
:1007A0000F920FB60F9211242F933F934F935F93A5
:1007B0006F937F938F939F93AF93BF93EF93FF9329
:1007C000DF93CF93CDB7DEB7809160009091610049
:1007D000009729F0E0916000F09161000995CF91B8
:1007E000DF91FF91EF91BF91AF919F918F917F9199
:1007F0006F915F914F913F912F910F900FBE0F908E
:100800001F901895DF93CF93CDB7DEB7AAE2B0E083
:10081000EAE2F0E0808180618C93AAE2B0E0EAE253
:10082000F0E0808188608C93ABE2B0E0EBE2F0E036
:1008300080818D7F8C93ABE2B0E0EBE2F0E08081D1
:100840008E7F8C93E0E4F0E01082E9E2F0E083E355
:100850008083AAE2B0E0EAE2F0E0808180688C93D5
:10086000AAE2B0E0EAE2F0E080818B7F8C93E0E4E2
:10087000F0E086E88083CF91DF910895DF93CF93F6
:100880000F92CDB7DEB78983EBE2F0E080818295ED
:1008900086958770882F90E0817090700097A1F303
:1008A000ECE2F0E0898180830F90CF91DF91089591
:1008B000DF93CF930F92CDB7DEB71982ECE2F0E071
:1008C0008081898389810F90CF91DF910895DF9393
:1008D000CF93CDB7DEB784E060E040E00E943E00F9
:1008E00084E061E041E00E943E0082E067E041E098
:1008F0000E943E000E9495030E94020480916200C3
:10090000813431F482E067E041E00E948601F6CF55
:1009100080916200823491F782E067E040E00E94BB
:100920008601ECCF1F920F920FB60F9211242F93D6
:100930003F934F935F936F937F938F939F93AF9367
:10094000BF93EF93FF93DF93CF93CDB7DEB70E94B2
:10095000580480936200CF91DF91FF91EF91BF9196
:10096000AF919F918F917F916F915F914F913F9147
:100970002F910F900FBE0F901F901895F894FFCFF6
:00000001FF
