:100000000C942A000C94620A0C9447000C9447004C
:100010000C9447000C9447000C9447000C94470044
:100020000C9447000C9447000C9447000C94470034
:100030000C9447000C94F5120C9447000C94470064
:100040000C9495060C9447000C9447000C944700C0
:100050000C94470011241FBECFE5D8E0DEBFCDBF12
:1000600010E0A0E6B0E0EAE9F7E202C005900D92E8
:10007000A43BB107D9F710E0A4EBB0E001C01D929A
:10008000AE3BB107E1F70E94F60E0C94CB130C9433
:100090000000EF92FF920F931F937B018C0120E0F1
:1000A00030E040E05FE40E94490388238CF0C801FF
:1000B000B70120E030E040E05FE40E94C1010E940F
:1000C000A9039B01AC01205030404040504806C07D
:1000D000C801B7010E94A9039B01AC01B901CA0183
:1000E0001F910F91FF90EF900895A0E0B0E0EBE733
:1000F000F0E00C949413DC012B01FA019C919230F6
:1001000008F439C1EB018881823008F433C194309E
:1001100069F4843009F02FC111969C91119789815F
:10012000981709F428C1ACE9B0E025C1843009F47E
:1001300021C18230A9F4923009F01DC19A01AD01AC
:1001400088E0EA010990AE01E90109929E0181501F
:10015000C1F7E201898111969C918923818308C1AD
:10016000923009F407C112962D903C901397EB0141
:100170008A819B811496AD90BD90CD90DC901797AD
:10018000EC80FD800E811F819101281B390BB90184
:1001900037FF04C066277727621B730B6032710537
:1001A0000CF061C0121613066CF537014801062EDB
:1001B00004C096948794779467940A94D2F721E0C8
:1001C00030E040E050E004C0220F331F441F551FB1
:1001D0006A95D2F721503040404050402E213F21B7
:1001E00040235123211531054105510521F021E01E
:1001F00030E040E050E079018A01E628F72808293C
:1002000019293CC0232BD1F1260E371E350146019A
:10021000062E04C096948794779467940A94D2F734
:1002200021E030E040E050E004C0220F331F441FC3
:10023000551F6A95D2F721503040404050402A2146
:100240003B214C215D21211531054105510521F04E
:1002500021E030E040E050E059016A01A628B728CB
:10026000C828D9280BC0821593052CF01C01AA249C
:10027000BB24650103C0EE24FF24870111969C91E5
:10028000D20111968C91981709F445C0992339F041
:10029000A80197012A193B094C095D0906C0A6016E
:1002A00095012E193F09400B510B57FD08C01182D3
:1002B0003382228224833583468357831DC081E0A5
:1002C00081833382228288279927DC01821B930B4A
:1002D000A40BB50B84839583A683B7830DC0220F2F
:1002E000331F441F551F24833583468357838281E0
:1002F000938101979383828324813581468157813D
:10030000DA01C9010197A109B1098F5F9F4FAF4F72
:10031000BF4328F30BC0918333822282EA0CFB1C7B
:100320000C1D1D1DE482F5820683178383E0808304
:10033000248135814681578157FF1AC0C901AA27F8
:1003400097FDA095BA2F81709070A070B0705695EF
:10035000479537952795822B932BA42BB52B848318
:100360009583A683B7838281938101969383828349
:10037000DF0101C0D201CD01CDB7DEB7E2E10C94BF
:10038000B013A0E2B0E0E7ECF1E00C94A0136983B5
:100390007A838B839C832D833E834F835887E9E048
:1003A000EE2EF12CEC0EFD1ECE010196B7010E943F
:1003B000D2048E010F5E1F4FCE010596B8010E9438
:1003C000D2048A8991E089278A8BC701B801AE01DE
:1003D000475E5F4F0E9475000E94FD03A096E6E015
:1003E0000C94BC13A0E2B0E0E8EFF1E00C94A01391
:1003F00069837A838B839C832D833E834F835887C5
:10040000F9E0EF2EF12CEC0EFD1ECE010196B701A6
:100410000E94D2048E010F5E1F4FCE010596B801D7
:100420000E94D204C701B801AE01475E5F4F0E942F
:1004300075000E94FD03A096E6E00C94BC13A0E2B8
:10044000B0E0E5E2F2E00C94941369837A838B8345
:100450009C832D833E834F835887CE010196BE0136
:10046000675F7F4F0E94D204CE010596BE016F5E8A
:100470007F4F0E94D2049985923088F0898982301A
:10048000C8F0943019F4823051F404C0843029F457
:10049000923081F48CE990E0C6C0923049F420E0BB
:1004A0009A858A89981321E02A87CE010996BBC0D4
:1004B000823049F420E09A858A89981321E02A8BBA
:1004C000CE014196B0C02D843E844F8458886D88FB
:1004D0007E888F88988CEE24FF248701AA24BB2471
:1004E000650140E050E060E070E0E0E0F0E0C10174
:1004F00081709070892BE9F0E60CF71C081D191D1E
:100500009A01AB012A0D3B1D4C1D5D1D80E090E062
:10051000A0E0B0E0E614F7040805190520F481E036
:1005200090E0A0E0B0E0BA01A901480F591F6A1F8E
:100530007B1FAA0CBB1CCC1CDD1C97FE08C081E0F5
:1005400090E0A0E0B0E0A82AB92ACA2ADB2A3196B6
:10055000E032F10549F0660C771C881C991C569412
:10056000479437942794C3CFFA85EA892B893C892D
:100570008B859C85280F391F2E5F3F4F17C0CA01FE
:1005800081709070892B61F016950795F794E79428
:1005900080E090E0A0E0B0E8E82AF92A0A2B1B2BC3
:1005A00076956795579547952F5F3F4F77FDE7CF36
:1005B0000CC0440F551F661F771F17FD4160EE0CDE
:1005C000FF1C001F111F21503040403090E05907A0
:1005D00090E0690790E4790760F32B8F3C8FDB0193
:1005E000CA018F779070A070B07080349105A1051A
:1005F000B10561F447FD0AC0E114F10401051105DC
:1006000029F0405C5F4F6F4F7F4F40781A8EFE1786
:1006100011F081E08A8F4D8F5E8F6F8F78A383E01A
:10062000898FCE0149960E94FD03A096E2E10C94C9
:10063000B013A8E1B0E0EFE1F3E00C94A0136983FC
:100640007A838B839C832D833E834F83588789E0F5
:10065000E82EF12CEC0EFD1ECE010196B7010E9492
:10066000D2048E010F5E1F4FCE010596B8010E9485
:10067000D2048985823040F08989823028F0C70110
:10068000B8010E944A0501C08FEF6896E6E00C941D
:10069000BC13A8E1B0E0EFE4F3E00C94A01369838D
:1006A0007A838B839C832D833E834F83588789E095
:1006B000E82EF12CEC0EFD1ECE010196B7010E9432
:1006C000D2048E010F5E1F4FCE010596B8010E9425
:1006D000D2048985823040F08989823028F0C701B0
:1006E000B8010E944A0501C08FEF6896E6E00C94BD
:1006F000BC13A8E1B0E0EFE7F3E00C94A01369832A
:100700007A838B839C832D833E834F83588789E034
:10071000E82EF12CEC0EFD1ECE010196B7010E94D1
:10072000D2048E010F5E1F4FCE010596B8010E94C4
:10073000D2048985823040F08989823028F0C7014F
:10074000B8010E944A0501C081E06896E6E00C9479
:10075000BC13ACE0B0E0EFEAF3E00C94A4136983BF
:100760007A838B839C83CE010196BE016B5F7F4FA2
:100770000E94D2048D81823061F1823050F1843048
:1007800021F48E81882351F12EC02F81388537FDC9
:1007900020C06E812F3131051CF06623F9F023C093
:1007A0008EE190E0821B930B29853A854B855C8511
:1007B00004C056954795379527958A95D2F76623B5
:1007C000B1F050954095309521953F4F4F4F5F4F79
:1007D0000EC020E030E040E050E009C02FEF3FEFD6
:1007E0004FEF5FE704C020E030E040E050E8B9019F
:1007F000CA012C96E2E00C94C013DF92EF92FF92B4
:100800000F931F93FC01E480F58006811781D1804E
:100810008081823048F480E090E0A0E1B0E0E82AF6
:10082000F92A0A2B1B2BA5C0843009F49FC0823003
:1008300021F4EE24FF24870105C0E114F104010531
:10084000110519F4E0E0F0E096C0628173819FEF3A
:10085000623879070CF05BC022E83FEF261B370BAC
:100860002A3131052CF020E030E040E050E02AC091
:10087000B801A701022E04C0769567955795479554
:100880000A94D2F781E090E0A0E0B0E004C0880FC5
:10089000991FAA1FBB1F2A95D2F70197A109B10979
:1008A0008E219F21A023B1230097A105B10521F03E
:1008B00081E090E0A0E0B0E09A01AB01282B392B59
:1008C0004A2B5B2BDA01C9018F779070A070B07052
:1008D00080349105A105B10539F427FF09C0205CDA
:1008E0003F4F4F4F5F4F04C0215C3F4F4F4F5F4F13
:1008F000E0E0F0E02030A0E03A07A0E04A07A0E402
:100900005A0710F0E1E0F0E079018A0127C0603871
:10091000710564F5FB01E158FF4FD801C7018F77DE
:100920009070A070B07080349105A105B10539F4C4
:10093000E7FE0DC080E490E0A0E0B0E004C08FE3EB
:1009400090E0A0E0B0E0E80EF91E0A1F1B1F17FFA1
:1009500005C016950795F794E794319687E01695AC
:100960000795F794E7948A95D1F705C0EE24FF2404
:100970008701EFEFF0E06E2F679566276795902F60
:100980009F77D794DD24D7948E2F8695492F462BB9
:10099000582F5D29B701CA011F910F91FF90EF9069
:1009A000DF900895FC01DB01408151812281622F9B
:1009B0006F7770E0221F2227221F9381892F880FD3
:1009C000822B282F30E0991F9927991F11969C930D
:1009D000119721153105A9F54115510561057105DD
:1009E00011F482E037C082E89FEF13969C938E93B8
:1009F00012979A01AB0167E0220F331F441F551F66
:100A00006A95D1F783E08C930DC0220F331F441FEA
:100A1000551F12968D919C911397019713969C9355
:100A20008E931297203080E0380780E0480780E4FA
:100A3000580758F314962D933D934D935C93179755
:100A400008952F3F310579F4411551056105710570
:100A500019F484E08C93089564FF03C081E08C93C3
:100A600012C01C9210C02F57304013963C932E9307
:100A7000129783E08C9387E0440F551F661F771F02
:100A80008A95D1F7706414964D935D936D937C9322
:100A9000179708951F93DC01FB019C91923008F495
:100AA00047C08081823008F443C0943051F41196DD
:100AB0001C91843099F58181682F70E0611B710968
:100AC0003FC0843021F0923031F48230B9F181811D
:100AD000882389F12DC011961C9111978230F1F075
:100AE00081811817D9F412962D913C911397828128
:100AF00093818217930794F028173907BCF0149656
:100B00008D919D910D90BC91A02D248135814681C0
:100B10005781281739074A075B0718F4112341F05A
:100B20000AC082179307A407B50740F4112319F0F0
:100B300061E070E005C06FEF7FEF02C060E070E041
:100B4000CB011F910895DF93CF93CDB7DEB7A7E216
:100B5000B0E0E7E2F0E0808180648C93A7E2B0E04F
:100B6000E7E2F0E080818F778C93A7E2B0E0E7E2E4
:100B7000F0E0808180628C93A6E2B0E0E6E2F0E0F3
:100B8000808181608C93A6E2B0E0E6E2F0E08081B3
:100B900082608C93A6E2B0E0E6E2F0E080818460BF
:100BA0008C93A6E2B0E0E6E2F0E0808180688C936E
:100BB000CF91DF910895DF93CF9300D000D000D084
:100BC000CDB7DEB78D8319821A821B821C82A7E201
:100BD000B0E0E7E2F0E08081807E8C93A7E2B0E0B5
:100BE000E7E2F0E090818D81892B8C93A6E2B0E062
:100BF000E6E2F0E0808180648C930BC089819A8169
:100C0000AB81BC810196A11DB11D89839A83AB8301
:100C1000BC83E6E2F0E0808182958F70882F90E0BF
:100C200081709070009761F489819A81AB81BC8159
:100C300080362AEE920720E0A20720E0B207F0F209
:100C400089819A81AB81BC8180362AEE920720E0AF
:100C5000A20720E0B20769F0A6E2B0E0E6E2F0E029
:100C6000808180618C93E5E2F0E080818E838E81CB
:100C700000C026960FB6F894DEBF0FBECDBFCF9151
:100C8000DF910895DF93CF9300D000D000D0CDB78F
:100C9000DEB78A837C836B835E834D8381E08983A7
:100CA0008B819C810097A9F18D819E81009789F1AC
:100CB0008D819E819093B7008093B6008B819C813B
:100CC0009093B5008093B400A7E2B0E0E7E2F0E0D3
:100CD0008081807E8C93A7E2B0E0E7E2F0E0908133
:100CE0008A81892B8C93A6E2B0E0E6E2F0E0808175
:100CF00080648C93AFE5B0E0EFE5F0E08081806840
:100D00008C93A6E2B0E0E6E2F0E0808188608C930C
:100D100002C082E08983898126960FB6F894DEBFEF
:100D20000FBECDBFCF91DF9108951F920F920FB6E6
:100D30000F9211242F933F934F935F936F937F9361
:100D40008F939F93AF93BF93EF93FF93DF93CF93D3
:100D5000CDB7DEB7A091B600B091B700E5E2F0E004
:100D600080818C93E091B400F091B5000995A6E2E2
:100D7000B0E0E6E2F0E08081877F8C93CF91DF9155
:100D8000FF91EF91BF91AF919F918F917F916F9163
:100D90005F914F913F912F910F900FBE0F901F9039
:100DA0001895DF93CF93CDB7DEB727970FB6F8949A
:100DB000DEBF0FBECDBF89836A834B838A818830B3
:100DC00008F0ECC08B81882309F075C08981282F39
:100DD00030E03F832E838E819F818230910561F1C7
:100DE0002E813F812330310534F48E819F81813003
:100DF000910569F0D3C02E813F812330310589F1FF
:100E00008E819F818430910509F440C0C7C0AAE358
:100E1000B0E0EAE3F0E08081482F8A81282F30E0BB
:100E200081E090E0022E02C0880F991F0A94E2F739
:100E3000809584238C93B2C0A7E3B0E0E7E3F0E0B1
:100E40008081482F8A81282F30E081E090E0022EB7
:100E500002C0880F991F0A94E2F7809584238C932F
:100E60009DC0A4E3B0E0E4E3F0E08081482F8A81F4
:100E7000282F30E081E090E0022E02C0880F991FF9
:100E80000A94E2F7809584238C9388C0A1E3B0E0B4
:100E9000E1E3F0E08081482F8A81282F30E081E073
:100EA00090E0022E02C0880F991F0A94E2F7809505
:100EB00084238C9373C08B81813009F06FC089814A
:100EC000282F30E03D832C838C819D8182309105D9
:100ED00051F12C813D812330310534F48C819D8189
:100EE0008130910561F05AC02C813D81233031055C
:100EF00071F18C819D8184309105E9F14FC0AAE3A5
:100F0000B0E0EAE3F0E08081482F8A81282F30E0CA
:100F100081E090E0022E02C0880F991F0A94E2F748
:100F2000842B8C933BC0A7E3B0E0E7E3F0E0808143
:100F3000482F8A81282F30E081E090E0022E02C005
:100F4000880F991F0A94E2F7842B8C9327C0A4E39F
:100F5000B0E0E4E3F0E08081482F8A81282F30E080
:100F600081E090E0022E02C0880F991F0A94E2F7F8
:100F7000842B8C9313C0A1E3B0E0E1E3F0E0808127
:100F8000482F8A81282F30E081E090E0022E02C0B5
:100F9000880F991F0A94E2F7842B8C9327960FB63B
:100FA000F894DEBF0FBECDBFCF91DF910895DF93E0
:100FB000CF9300D000D0CDB7DEB789836A83898113
:100FC000282F30E03C832B838B819C8182309105DC
:100FD000D9F02B813C812330310534F48B819C8105
:100FE0008130910561F01EC02B813C812330310599
:100FF00081F08B819C818430910581F013C0EAE3FC
:10100000F0E08A8180830EC0E7E3F0E08A8180838C
:1010100009C0E4E3F0E08A81808304C0E1E3F0E00A
:101020008A8180830F900F900F900F90CF91DF9166
:101030000895DF93CF93CDB7DEB727970FB6F89417
:10104000DEBF0FBECDBF89836A834B838A81883020
:1010500008F0ECC08B81882309F075C08981282FA6
:1010600030E03F832E838E819F818230910561F134
:101070002E813F812330310534F48E819F81813070
:10108000910569F0D3C02E813F812330310589F16C
:101090008E819F818430910509F440C0C7C0ABE3C5
:1010A000B0E0EBE3F0E08081482F8A81282F30E028
:1010B00081E090E0022E02C0880F991F0A94E2F7A7
:1010C000809584238C93B2C0A8E3B0E0E8E3F0E01D
:1010D0008081482F8A81282F30E081E090E0022E25
:1010E00002C0880F991F0A94E2F7809584238C939D
:1010F0009DC0A5E3B0E0E5E3F0E08081482F8A8160
:10110000282F30E081E090E0022E02C0880F991F66
:101110000A94E2F7809584238C9388C0A2E3B0E020
:10112000E2E3F0E08081482F8A81282F30E081E0DF
:1011300090E0022E02C0880F991F0A94E2F7809572
:1011400084238C9373C08B81813009F06FC08981B7
:10115000282F30E03D832C838C819D818230910546
:1011600051F12C813D812330310534F48C819D81F6
:101170008130910561F05AC02C813D8123303105C9
:1011800071F18C819D8184309105E9F14FC0ABE311
:10119000B0E0EBE3F0E08081482F8A81282F30E037
:1011A00081E090E0022E02C0880F991F0A94E2F7B6
:1011B000842B8C933BC0A8E3B0E0E8E3F0E08081AF
:1011C000482F8A81282F30E081E090E0022E02C073
:1011D000880F991F0A94E2F7842B8C9327C0A5E30C
:1011E000B0E0E5E3F0E08081482F8A81282F30E0ED
:1011F00081E090E0022E02C0880F991F0A94E2F766
:10120000842B8C9313C0A2E3B0E0E2E3F0E0808192
:10121000482F8A81282F30E081E090E0022E02C022
:10122000880F991F0A94E2F7842B8C9327960FB6A8
:10123000F894DEBF0FBECDBFCF91DF910895DF934D
:10124000CF9300D000D0CDB7DEB789836A83898180
:10125000282F30E03C832B838B819C818230910549
:10126000D9F02B813C812330310534F48B819C8172
:101270008130910561F01EC02B813C812330310506
:1012800081F08B819C818430910581F013C0EBE368
:10129000F0E08A8180830EC0E8E3F0E08A818083F9
:1012A00009C0E5E3F0E08A81808304C0E2E3F0E076
:1012B0008A8180830F900F900F900F90CF91DF91D4
:1012C0000895DF93CF9300D000D00F92CDB7DEB753
:1012D0008A836B8319828A81282F30E03D832C8397
:1012E0004C815D814230510541F18C819D8183307B
:1012F000910534F42C813D812130310561F052C0DB
:101300004C815D814330510551F18C819D81843048
:101310009105B9F147C0E9E3F0E08081282F30E082
:101320008B81882F90E0A90102C0559547958A9539
:10133000E2F7CA018170898335C0E6E3F0E080817D
:10134000282F30E08B81882F90E0A90102C05595AD
:1013500047958A95E2F7CA018170898323C0E3E348
:10136000F0E08081282F30E08B81882F90E0A90168
:1013700002C0559547958A95E2F7CA018170898325
:1013800011C0E0E3F0E08081282F30E08B81882FCE
:1013900090E0A90102C0559547958A95E2F7CA01E8
:1013A0008170898389810F900F900F900F900F901B
:1013B000CF91DF910895DF93CF93CDB7DEB7ABE543
:1013C000B0E0EBE5F0E0808180648C93A5E5B0E0CF
:1013D000E5E5F0E0808181608C93A5E5B0E0E5E58E
:1013E000F0E080818D7F8C93CF91DF910895DF9322
:1013F000CF93CDB7DEB7ABE5B0E0EBE5F0E08081B1
:1014000080688C93A5E5B0E0E5E5F0E08081886038
:101410008C93A5E5B0E0E5E5F0E080818B7F8C93CF
:10142000CF91DF910895DF93CF93CDB7DEB7ABE5D2
:10143000B0E0EBE5F0E0808180628C93A4E5B0E061
:10144000E4E5F0E0808180648C93CF91DF91089592
:10145000DF93CF93CDB7DEB7AFE5B0E0EFE5F0E0D7
:10146000808180688C93CF91DF910895DF93CF9333
:10147000CDB7DEB7AFE5B0E0EFE5F0E080818F7784
:101480008C93CF91DF910895DF93CF9300D00F928B
:10149000CDB7DEB79B838A8381E089838A819B8174
:1014A000009739F08A819B819093B9008093B800AE
:1014B00002C082E0898389810F900F900F90CF91B5
:1014C000DF9108951F920F920FB60F9211242F9360
:1014D0003F934F935F936F937F938F939F93AF93BC
:1014E000BF93EF93FF93DF93CF93CDB7DEB7809198
:1014F000B8009091B900009729F0E091B800F09100
:10150000B9000995CF91DF91FF91EF91BF91AF9114
:101510009F918F917F916F915F914F913F912F910B
:101520000F900FBE0F901F901895DF93CF93CDB7FC
:10153000DEB781E060E041E00E94D10681E061E039
:1015400041E00E94D10681E062E041E00E94D106C4
:1015500081E063E041E00E94D10682E060E040E08B
:101560000E94D10682E061E040E00E94D10682E064
:1015700062E040E00E94D10682E063E040E00E9429
:10158000D10681E060E041E00E94190881E061E05D
:1015900041E00E94190881E062E041E00E941908E0
:1015A00081E063E041E00E94190882E060E041E0F0
:1015B0000E94190882E061E041E00E94190882E07F
:1015C00062E041E00E94190882E063E041E00E948D
:1015D0001908CF91DF910895DF93CF93CDB7DEB790
:1015E000A1970FB6F894DEBF0FBECDBF8FEF8B83F0
:1015F000CE0104969E8F8D8FE4EAF0E0F8A3EF8F82
:10160000F0E1F9A3EF8DF8A100808F8D98A10196EC
:1016100098A38F8FED8DFE8D00828D8D9E8D01960E
:101620009E8F8D8F99A1915099A3E9A1EE2351F737
:101630001C8A81E08D8B82E08E8B83E08F8B188EED
:1016400081E0898F82E08A8F83E08B8F1A8272C05B
:101650008A81282F30E0CE014496FC01E20FF31F6F
:10166000908181E0692F40E00E94190819824DC0E5
:101670008981282F30E0CE014896FC01E20FF31F4C
:10168000908182E0692F0E9461098823D9F58981C0
:10169000282F30E08A81482F50E0220F331F220F7D
:1016A000331FCE010196820F931F840F951FFC01FB
:1016B000339680818B8314C08981282F30E08A8102
:1016C000482F50E0220F331F220F331FCE01019607
:1016D000820F931F840F951FFC01339680818B83AB
:1016E0008981282F30E0CE014896FC01E20FF31FDC
:1016F000908182E0692F0E9461098823E9F2FB81D1
:10170000FC8F1EC089818F5F89838981843008F4B2
:10171000AFCF8A81282F30E0CE014496FC01E20F42
:10172000F31F908181E0692F41E00E9419088A81AE
:101730008F5F8A838A81843008F48ACF8B818C8F73
:101740008C8DA1960FB6F894DEBF0FBECDBFCF91A2
:10175000DF910895DF93CF93CDB7DEB72F970FB604
:10176000F894DEBF0FBECDBF8F8784E065E040E018
:101770000E94190884E066E040E00E94190883E0B6
:101780006F850E941F0984E067E041E00E9419080C
:1017900080E090E0A0E0B0E48B879C87AD87BE87B7
:1017A0006B857C858D859E8520E030E04AEF54E492
:1017B0000E941F02DC01CB018F839887A987BA871B
:1017C0006F81788589859A8520E030E040E85FE385
:1017D0000E94790388232CF481E090E09E838D831E
:1017E0003FC06F81788589859A8520E03FEF4FE77C
:1017F00057E40E94190318164CF56B857C858D857E
:101800009E8520E030E040E251E40E941F02DC01AE
:10181000CB01BC01CD010E944900DC01CB019E83BC
:101820008D830FC088EC90E09C838B838B819C819F
:101830000197F1F79C838B838D819E8101979E8315
:101840008D838D819E81009769F714C06F817885A3
:1018500089859A850E944900DC01CB019E838D8396
:101860008D819E819A83898389819A810197F1F77D
:101870009A83898384E067E040E00E9419082F96EC
:101880000FB6F894DEBF0FBECDBFCF91DF910895A4
:10189000DF93CF93CDB7DEB72F970FB6F894DEBFA7
:1018A0000FBECDBF8F8784E065E041E00E9419083C
:1018B00084E066E040E00E94190883E06F850E94A2
:1018C0001F0984E067E041E00E94190880E090E091
:1018D000A0E0B0E48B879C87AD87BE876B857C8555
:1018E0008D859E8520E030E04AEF54E40E941F027F
:1018F000DC01CB018F839887A987BA876F817885B0
:1019000089859A8520E030E040E85FE30E94790312
:1019100088232CF481E090E09E838D833FC06F810B
:10192000788589859A8520E03FEF4FE757E40E944C
:10193000190318164CF56B857C858D859E8520E0F6
:1019400030E040E251E40E941F02DC01CB01BC0107
:10195000CD010E944900DC01CB019E838D830FC025
:1019600088EC90E09C838B838B819C810197F1F7BD
:101970009C838B838D819E8101979E838D838D8136
:101980009E81009769F714C06F81788589859A8553
:101990000E944900DC01CB019E838D838D819E8155
:1019A0009A83898389819A810197F1F79A83898340
:1019B00084E067E040E00E9419082F960FB6F89483
:1019C000DEBF0FBECDBFCF91DF910895DF93CF93E0
:1019D000CDB7DEB72E970FB6F894DEBF0FBECDBFE2
:1019E00083E06FEF0E94D70784E065E041E00E944A
:1019F000D10684E066E041E00E94D10684E067E021
:101A000041E00E94D10680E090E0A0E2B2E48B8742
:101A10009C87AD87BE876B857C858D859E8520E004
:101A200030E04AEF54E40E941F02DC01CB018F83B7
:101A30009887A987BA876F81788589859A8520E0FC
:101A400030E040E85FE30E94790388232CF481E0D2
:101A500090E09E838D833FC06F81788589859A85CC
:101A600020E03FEF4FE757E40E94190318164CF5AA
:101A70006B857C858D859E8520E030E040E251E4D9
:101A80000E941F02DC01CB01BC01CD010E94490074
:101A9000DC01CB019E838D830FC088EC90E09C839A
:101AA0008B838B819C810197F1F79C838B838D8144
:101AB0009E8101979E838D838D819E81009769F71A
:101AC00014C06F81788589859A850E944900DC0160
:101AD000CB019E838D838D819E819A8389838981A9
:101AE0009A810197F1F79A83898388E30E94AA0B70
:101AF0008CE00E94AA0B81E00E94AA0B2E960FB6E2
:101B0000F894DEBF0FBECDBFCF91DF910895DF9374
:101B1000CF9300D00F92CDB7DEB78A836B838A81D3
:101B2000882319F48B81898306C08A81813019F456
:101B30008B81805C8983898180580E94AA0B0F90D9
:101B40000F900F90CF91DF910895DF93CF9300D046
:101B50000F92CDB7DEB79B838A830EC08981282F71
:101B600030E08A819B81FC01E20FF31F80810E949B
:101B7000480C89818F5F89838981282F30E08A8191
:101B80009B81FC01E20FF31F8081882339F70F90BE
:101B90000F900F90CF91DF910895DF93CF93CDB742
:101BA000DEB727970FB6F894DEBF0FBECDBF9C837C
:101BB0008B836D834E832F838D81882F90E0880FD8
:101BC000991F880F991F880F991F8A838A81805CCB
:101BD0000E94AA0B19820EC08981282F30E08B81C8
:101BE0009C81FC01E20FF31F80810E94480C8981D7
:101BF0008F5F89838981883078F38E816F810E941D
:101C0000870D8D810E94480C27960FB6F894DEBF91
:101C10000FBECDBFCF91DF910895DF93CF93CDB7A6
:101C2000DEB781E00E94AA0BCF91DF910895DF9388
:101C3000CF93CDB7DEB729970FB6F894DEBF0FBEAE
:101C4000CDBF6E837F83888799871D8280E09AEC61
:101C5000AAE9BBE389839A83AB83BC8350C08E819E
:101C60009F81A885B98529813A814B815C81BC011E
:101C7000CD010E947213DA01C9010097A105B105D7
:101C800031F18E819F81A885B98529813A814B8167
:101C90005C81BC01CD010E947213DA01C901805D33
:101CA0000E94480C8E819F81A885B98529813A813F
:101CB0004B815C81BC01CD010E947213DC01CB0120
:101CC0008E839F83A887B98781E08D8306C08D812D
:101CD000813019F480E30E94480C89819A81AB819C
:101CE000BC812AE030E040E050E0BC01CD010E9420
:101CF0007213DA01C90189839A83AB83BC8389811A
:101D00009A81AB81BC810097A105B10509F0A7CFED
:101D100029960FB6F894DEBF0FBECDBFCF91DF91ED
:101D20000895DF93CF93CDB7DEB7AAE2B0E0EAE241
:101D3000F0E0808180618C93AAE2B0E0EAE2F0E01A
:101D4000808188608C93ABE2B0E0EBE2F0E08081D0
:101D50008D7F8C93ABE2B0E0EBE2F0E080818E7F90
:101D60008C93E0E4F0E01082E9E2F0E083E380832A
:101D7000AAE2B0E0EAE2F0E0808180688C93AAE217
:101D8000B0E0EAE2F0E080818B7F8C93E0E4F0E069
:101D900086E88083CF91DF910895DF93CF930F92F0
:101DA000CDB7DEB78983EBE2F0E08081829586953E
:101DB0008770882F90E0817090700097A1F3ECE21B
:101DC000F0E0898180830F90CF91DF910895DF93B8
:101DD000CF930F92CDB7DEB71982ECE2F0E08081AD
:101DE000898389810F90CF91DF910895DF93CF93FD
:101DF000CDB7DEB7C254D0400FB6F894DEBF0FBEE9
:101E0000CDBF1AAE82E38BAF82E38CAF82E38DAF9E
:101E100082E38EAF82E064E041E00E94D10682E07E
:101E200065E041E00E94D10684E062E040E00E946B
:101E3000D10681E067E040E00E94D10684E060E0E6
:101E400040E00E94D10684E061E041E00E94D106BA
:101E50000E94910E0E94A3050E94DB098FE292E18D
:101E60000E94440A0E94280A0E94950A0E94E60CD9
:101E70000E940D0E80E060E00E94870D2BC08091D3
:101E8000BD00813059F180E060E00E94870D80E65E
:101E900090E00E94A50D0E94EC0A89AF89AD8F3FAA
:101EA000C9F08091BC00282F30E0CE01CF96FC0114
:101EB000E20FF31F89AD80839091BC0081E0692F10
:101EC0000E94870D89AD0E94480C8091BC008F5FF5
:101ED0008093BC008091BC00843089F68091BD0065
:101EE000882309F045C1FE01FF9690818BAD9817BC
:101EF00009F09DC0FE01FF9691818CAD981709F005
:101F000096C0FE01FF9692818DAD981709F08FC0A3
:101F1000FE01FF9693818EAD981709F088C081E08D
:101F20008093BD000E940D0E80E060E00E94870D4E
:101F30008BE690E00E94A50D81E060E00E94870D95
:101F400089E790E00E94A50D80E090E0A8ECB2E463
:101F50008DAB9EABAFABB8AF6DA97EA98FA998AD85
:101F600020E030E04AEF54E40E941F02DC01CB0184
:101F700089AB9AABABABBCAB69A97AA98BA99CA97D
:101F800020E030E040E85FE30E94790388232CF4EE
:101F900081E090E098AB8FA73FC069A97AA98BA98F
:101FA0009CA920E03FEF4FE757E40E941903181661
:101FB0004CF56DA97EA98FA998AD20E030E040E2F4
:101FC00051E40E941F02DC01CB01BC01CD010E9443
:101FD0004900DC01CB0198AB8FA70FC088EC90E0E3
:101FE0009EA78DA78DA59EA50197F1F79EA78DA70A
:101FF0008FA598A9019798AB8FA78FA598A900974F
:1020000069F7B6C069A97AA98BA99CA90E94490061
:10201000DC01CB0198AB8FA78FA598A99CA78BA7B4
:102020008BA59CA50197F1F79CA78BA7A1C0FE01EA
:10203000FF9690818BAD981799F4FE01FF969181E0
:102040008CAD981769F4FE01FF9692818DAD9817BB
:1020500039F4FE01FF9693818EAD981709F488C07C
:102060000E940D0E80E060E00E94870D84E890E001
:102070000E94A50D81E060E00E94870D82E990E05A
:102080000E94A50D80E090E0AAE7B4E48FA398A792
:10209000A9A7BAA76FA178A589A59AA520E030E0E5
:1020A0004AEF54E40E941F02DC01CB018BA39CA3E6
:1020B000ADA3BEA36BA17CA18DA19EA120E030E0C9
:1020C00040E85FE30E94790388232CF481E090E0EC
:1020D0009AA389A33FC06BA17CA18DA19EA120E002
:1020E0003FEF4FE757E40E94190318164CF56FA114
:1020F00078A589A59AA520E030E040E251E40E944D
:102100001F02DC01CB01BC01CD010E944900DC01B2
:10211000CB019AA389A30FC088EC90E098A38F8F7E
:102120008F8D98A10197F1F798A38F8F89A19AA11C
:1021300001979AA389A389A19AA1009769F714C06E
:102140006BA17CA18DA19EA10E944900DC01CB0165
:102150009AA389A389A19AA19E8F8D8F8D8D9E8D23
:102160000197F1F79E8F8D8F0E940D0E1092BC008B
:102170008091BA00813409F00BC1F7C00E94CA12E5
:102180008AAF8AAD803120F48AAD8F3009F077C0F4
:102190000E9417120E940B1280E090E0AAE7B4E4BC
:1021A000898F9A8FAB8FBC8F698D7A8D8B8D9C8D2B
:1021B00020E030E04AEF54E40E941F02DC01CB0132
:1021C0008D8B9E8BAF8BB88F6D897E898F89988D13
:1021D00020E030E040E85FE30E94790388232CF49C
:1021E00081E090E09C8B8B8B3FC06D897E898F89CD
:1021F000988D20E03FEF4FE757E40E94190318162F
:102200004CF5698D7A8D8B8D9C8D20E030E040E21D
:1022100051E40E941F02DC01CB01BC01CD010E94F0
:102220004900DC01CB019C8B8B8B0FC088EC90E0CC
:102230009A8B898B89899A890197F1F79A8B898B77
:102240008B899C8901979C8B8B8B8B899C890097B0
:1022500069F78BC06D897E898F89988D0E944900AE
:10226000DC01CB019C8B8B8B8B899C89988B8F8716
:102270008F8598890197F1F7988B8F8776C00E9498
:1022800023120E94FF1180E090E0AAE7B4E48B875C
:102290009C87AD87BE876B857C858D859E8520E07C
:1022A00030E04AEF54E40E941F02DC01CB018F832F
:1022B0009887A987BA876F81788589859A8520E074
:1022C00030E040E85FE30E94790388232CF481E04A
:1022D00090E09E838D833FC06F81788589859A8544
:1022E00020E03FEF4FE757E40E94190318164CF522
:1022F0006B857C858D859E8520E030E040E251E451
:102300000E941F02DC01CB01BC01CD010E944900EB
:10231000DC01CB019E838D830FC088EC90E09C8311
:102320008B838B819C810197F1F79C838B838D81BB
:102330009E8101979E838D838D819E81009769F791
:1023400014C06F81788589859A850E944900DC01D7
:10235000CB019E838D838D819E819A838983898120
:102360009A810197F1F79A8389838091BA00813429
:1023700029F48091BD00813009F400CF8091BD0027
:10238000882309F0A7CD0E9423120E940B12A2CD30
:102390008091BA00823471F51BC08091BB008334F8
:1023A00019F40E94FF1114C08091BB00843419F409
:1023B0000E940B120DC08091BB00853419F40E945D
:1023C000171206C08091BB00863411F40E942312BC
:1023D0008091BA00823421F48091BD008130E9F20D
:1023E0008091BD00882309F075CD0E9423120E94C0
:1023F0000B1270CD0E9423120E940B126BCDDF9343
:10240000CF93CDB7DEB782E064E041E00E941908C7
:10241000CF91DF910895DF93CF93CDB7DEB782E000
:1024200064E040E00E941908CF91DF910895DF93A6
:10243000CF93CDB7DEB782E065E041E00E94190896
:10244000CF91DF910895DF93CF93CDB7DEB782E0D0
:1024500065E040E00E941908CF91DF910895DF9375
:10246000CF93CDB7DEB72F970FB6F894DEBF0FBE70
:10247000CDBF80E090E0A0E2B1E48B879C87AD8780
:10248000BE876B857C858D859E8520E030E04AEF98
:1024900054E40E941F02DC01CB018F839887A98737
:1024A000BA876F81788589859A8520E030E040E899
:1024B0005FE30E94790388232CF481E090E09E83FF
:1024C0008D833FC06F81788589859A8520E03FEFB5
:1024D0004FE757E40E94190318164CF56B857C856D
:1024E0008D859E8520E030E040E251E40E941F028D
:1024F000DC01CB01BC01CD010E944900DC01CB0114
:102500009E838D830FC088EC90E09C838B838B81AE
:102510009C810197F1F79C838B838D819E8101972C
:102520009E838D838D819E81009769F714C06F8192
:10253000788589859A850E944900DC01CB019E83BC
:102540008D838D819E819A83898389819A81019768
:10255000F1F79A83898384E062E00E9461098F87A2
:102560008F85813019F40E940D0E0BC08F85882352
:1025700041F41092BC001092BD001092BA0010926B
:10258000BB002F960FB6F894DEBF0FBECDBFCF9124
:10259000DF910895DF93CF9300D00F92CDB7DEB7D0
:1025A00087E00E94DB058B838B81882F90E0A0E081
:1025B000B0E028E833E140E050E0BC01CD010E94EA
:1025C0004713DC01CB01892F9A2FAB2FBB278A83BE
:1025D0008A819AE0692F0E946613898389810F900E
:1025E0000F900F90CF91DF9108951F920F920FB629
:1025F0000F9211242F933F934F935F936F937F9389
:102600008F939F93AF93BF93EF93FF93DF93CF93FA
:102610000F92CDB7DEB70E94E70E89838091BD008F
:10262000813051F48981813419F08981823421F417
:1026300089818093BA0017C08091BD00813099F4E0
:102640008091BA00823479F48981833449F0898198
:10265000843431F08981853419F08981863419F404
:1026600089818093BB000F90CF91DF91FF91EF9113
:10267000BF91AF919F918F917F916F915F914F919A
:102680003F912F910F900FBE0F901F901895629F52
:10269000D001739FF001829FE00DF11D649FE00D5A
:1026A000F11D929FF00D839FF00D749FF00D659FBB
:1026B000F00D9927729FB00DE11DF91F639FB00DBA
:1026C000E11DF91FBD01CF0111240895991B79E087
:1026D00004C0991F961708F0961B881F7A95C9F7B2
:1026E00080950895A1E21A2EAA1BBB1BFD010DC007
:1026F000AA1FBB1FEE1FFF1FA217B307E407F507B2
:1027000020F0A21BB30BE40BF50B661F771F881F8D
:10271000991F1A9469F760957095809590959B0123
:10272000AC01BD01CF0108952F923F924F925F926D
:102730006F927F928F929F92AF92BF92CF92DF92D1
:10274000EF92FF920F931F93CF93DF93CDB7DEB736
:10275000CA1BDB0B0FB6F894DEBF0FBECDBF0994CA
:102760002A88398848885F846E847D848C849B8421
:10277000AA84B984C884DF80EE80FD800C811B812F
:10278000AA81B981CE0FD11D0FB6F894DEBF0FBE5E
:0A279000CDBFED010895F894FFCFCE
:10279A00456E74657220706173730050617373774C
:1027AA006F7264206973205200456E7465722068E6
:1027BA006F6D650050617373776F7264206973205F
:1027CA00570054727920616761696E000000000049
:1027DA0000000000313233343536373839302B2D8A
:0427EA002A2F253D30
:00000001FF
