:100000000C942A000C943F000C943F000C943F0089
:100010000C943F000C943F000C943F000C943F0064
:100020000C943F000C943F000C943F000C943F0054
:100030000C943F000C943F000C943F000C943F0044
:100040000C943F000C943F000C943F000C943F0034
:100050000C943F0011241FBECFE5D8E0DEBFCDBF1A
:1000600010E0A0E6B0E0EAEEF9E202C005900D92E1
:10007000A43AB107D9F70E94820B0C94F3140C94A4
:100080000000EF92FF920F931F937B018C0120E001
:1000900030E040E05FE40E94410388238CF0C80117
:1000A000B70120E030E040E05FE40E94B9010E9427
:1000B000A1039B01AC01205030404040504806C095
:1000C000C801B7010E94A1039B01AC01B901CA019B
:1000D0001F910F91FF90EF900895A0E0B0E0E3E74B
:1000E000F0E00C94BC14DC012B01FA019C919230DD
:1000F00008F439C1EB018881823008F433C19430AF
:1001000069F4843009F02FC111969C91119789816F
:10011000981709F428C1A3E8B0E025C1843009F498
:1001200021C18230A9F4923009F01DC19A01AD01BC
:1001300088E0EA010990AE01E90109929E0181502F
:10014000C1F7E201898111969C918923818308C1BD
:10015000923009F407C112962D903C901397EB0151
:100160008A819B811496AD90BD90CD90DC901797BD
:10017000EC80FD800E811F819101281B390BB90194
:1001800037FF04C066277727621B730B6032710547
:100190000CF061C0121613066CF537014801062EEB
:1001A00004C096948794779467940A94D2F721E0D8
:1001B00030E040E050E004C0220F331F441F551FC1
:1001C0006A95D2F721503040404050402E213F21C7
:1001D00040235123211531054105510521F021E02E
:1001E00030E040E050E079018A01E628F72808294C
:1001F00019293CC0232BD1F1260E371E35014601AB
:10020000062E04C096948794779467940A94D2F744
:1002100021E030E040E050E004C0220F331F441FD3
:10022000551F6A95D2F721503040404050402A2156
:100230003B214C215D21211531054105510521F05E
:1002400021E030E040E050E059016A01A628B728DB
:10025000C828D9280BC0821593052CF01C01AA24AC
:10026000BB24650103C0EE24FF24870111969C91F5
:10027000D20111968C91981709F445C0992339F051
:10028000A80197012A193B094C095D0906C0A6017E
:1002900095012E193F09400B510B57FD08C01182E3
:1002A0003382228224833583468357831DC081E0B5
:1002B00081833382228288279927DC01821B930B5A
:1002C000A40BB50B84839583A683B7830DC0220F3F
:1002D000331F441F551F24833583468357838281F0
:1002E000938101979383828324813581468157814D
:1002F000DA01C9010197A109B1098F5F9F4FAF4F83
:10030000BF4328F30BC0918333822282EA0CFB1C8B
:100310000C1D1D1DE482F5820683178383E0808314
:10032000248135814681578157FF1AC0C901AA2708
:1003300097FDA095BA2F81709070A070B0705695FF
:10034000479537952795822B932BA42BB52B848328
:100350009583A683B7838281938101969383828359
:10036000DF0101C0D201CD01CDB7DEB7E2E10C94CF
:10037000D814A0E2B0E0EFEBF1E00C94C81469836C
:100380007A838B839C832D833E834F835887E9E058
:10039000EE2EF12CEC0EFD1ECE010196B7010E944F
:1003A000CA048E010F5E1F4FCE010596B8010E9450
:1003B000CA048A8991E089278A8BC701B801AE01F6
:1003C000475E5F4F0E946D000E94F503A096E6E035
:1003D0000C94E414A0E2B0E0E0EFF1E00C94C81457
:1003E00069837A838B839C832D833E834F835887D5
:1003F000F9E0EF2EF12CEC0EFD1ECE010196B701B7
:100400000E94CA048E010F5E1F4FCE010596B801EF
:100410000E94CA04C701B801AE01475E5F4F0E9447
:100420006D000E94F503A096E6E00C94E414A0E2AF
:10043000B0E0EDE1F2E00C94BC1469837A838B8325
:100440009C832D833E834F835887CE010196BE0146
:10045000675F7F4F0E94CA04CE010596BE016F5EA2
:100460007F4F0E94CA049985923088F08989823032
:10047000C8F0943019F4823051F404C0843029F467
:10048000923081F483E890E0C6C0923049F420E0D5
:100490009A858A89981321E02A87CE010996BBC0E4
:1004A000823049F420E09A858A89981321E02A8BCA
:1004B000CE014196B0C02D843E844F8458886D880B
:1004C0007E888F88988CEE24FF248701AA24BB2481
:1004D000650140E050E060E070E0E0E0F0E0C10184
:1004E00081709070892BE9F0E60CF71C081D191D2E
:1004F0009A01AB012A0D3B1D4C1D5D1D80E090E073
:10050000A0E0B0E0E614F7040805190520F481E046
:1005100090E0A0E0B0E0BA01A901480F591F6A1F9E
:100520007B1FAA0CBB1CCC1CDD1C97FE08C081E005
:1005300090E0A0E0B0E0A82AB92ACA2ADB2A3196C6
:10054000E032F10549F0660C771C881C991C569422
:10055000479437942794C3CFFA85EA892B893C893D
:100560008B859C85280F391F2E5F3F4F17C0CA010E
:1005700081709070892B61F016950795F794E79438
:1005800080E090E0A0E0B0E8E82AF92A0A2B1B2BD3
:1005900076956795579547952F5F3F4F77FDE7CF46
:1005A0000CC0440F551F661F771F17FD4160EE0CEE
:1005B000FF1C001F111F21503040403090E05907B0
:1005C00090E0690790E4790760F32B8F3C8FDB01A3
:1005D000CA018F779070A070B07080349105A1052A
:1005E000B10561F447FD0AC0E114F10401051105EC
:1005F00029F0405C5F4F6F4F7F4F40781A8EFE1797
:1006000011F081E08A8F4D8F5E8F6F8F78A383E02A
:10061000898FCE0149960E94F503A096E2E10C94E1
:10062000D814A8E1B0E0E7E1F3E00C94C8146983C2
:100630007A838B839C832D833E834F83588789E005
:10064000E82EF12CEC0EFD1ECE010196B7010E94A2
:10065000CA048E010F5E1F4FCE010596B8010E949D
:10066000CA048985823040F08989823028F0C70128
:10067000B8010E94420501C08FEF6896E6E00C9435
:10068000E414A8E1B0E0E7E4F3E00C94C814698353
:100690007A838B839C832D833E834F83588789E0A5
:1006A000E82EF12CEC0EFD1ECE010196B7010E9442
:1006B000CA048E010F5E1F4FCE010596B8010E943D
:1006C000CA048985823040F08989823028F0C701C8
:1006D000B8010E94420501C08FEF6896E6E00C94D5
:1006E000E414A8E1B0E0E7E7F3E00C94C8146983F0
:1006F0007A838B839C832D833E834F83588789E045
:10070000E82EF12CEC0EFD1ECE010196B7010E94E1
:10071000CA048E010F5E1F4FCE010596B8010E94DC
:10072000CA048985823040F08989823028F0C70167
:10073000B8010E94420501C081E06896E6E00C9491
:10074000E414ACE0B0E0E7EAF3E00C94CC14698385
:100750007A838B839C83CE010196BE016B5F7F4FB2
:100760000E94CA048D81823061F1823050F1843060
:1007700021F48E81882351F12EC02F81388537FDD9
:1007800020C06E812F3131051CF06623F9F023C0A3
:100790008EE190E0821B930B29853A854B855C8521
:1007A00004C056954795379527958A95D2F76623C5
:1007B000B1F050954095309521953F4F4F4F5F4F89
:1007C0000EC020E030E040E050E009C02FEF3FEFE6
:1007D0004FEF5FE704C020E030E040E050E8B901AF
:1007E000CA012C96E2E00C94E814DF92EF92FF929B
:1007F0000F931F93FC01E480F58006811781D1805F
:100800008081823048F480E090E0A0E1B0E0E82A06
:10081000F92A0A2B1B2BA5C0843009F49FC0823013
:1008200021F4EE24FF24870105C0E114F104010541
:10083000110519F4E0E0F0E096C0628173819FEF4A
:10084000623879070CF05BC022E83FEF261B370BBC
:100850002A3131052CF020E030E040E050E02AC0A1
:10086000B801A701022E04C0769567955795479564
:100870000A94D2F781E090E0A0E0B0E004C0880FD5
:10088000991FAA1FBB1F2A95D2F70197A109B10989
:100890008E219F21A023B1230097A105B10521F04E
:1008A00081E090E0A0E0B0E09A01AB01282B392B69
:1008B0004A2B5B2BDA01C9018F779070A070B07062
:1008C00080349105A105B10539F427FF09C0205CEA
:1008D0003F4F4F4F5F4F04C0215C3F4F4F4F5F4F23
:1008E000E0E0F0E02030A0E03A07A0E04A07A0E412
:1008F0005A0710F0E1E0F0E079018A0127C0603882
:10090000710564F5FB01E158FF4FD801C7018F77EE
:100910009070A070B07080349105A105B10539F4D4
:10092000E7FE0DC080E490E0A0E0B0E004C08FE3FB
:1009300090E0A0E0B0E0E80EF91E0A1F1B1F17FFB1
:1009400005C016950795F794E794319687E01695BC
:100950000795F794E7948A95D1F705C0EE24FF2414
:100960008701EFEFF0E06E2F679566276795902F70
:100970009F77D794DD24D7948E2F8695492F462BC9
:10098000582F5D29B701CA011F910F91FF90EF9079
:10099000DF900895FC01DB01408151812281622FAB
:1009A0006F7770E0221F2227221F9381892F880FE3
:1009B000822B282F30E0991F9927991F11969C931D
:1009C000119721153105A9F54115510561057105ED
:1009D00011F482E037C082E89FEF13969C938E93C8
:1009E00012979A01AB0167E0220F331F441F551F76
:1009F0006A95D1F783E08C930DC0220F331F441FFB
:100A0000551F12968D919C911397019713969C9365
:100A10008E931297203080E0380780E0480780E40A
:100A2000580758F314962D933D934D935C93179765
:100A300008952F3F310579F4411551056105710580
:100A400019F484E08C93089564FF03C081E08C93D3
:100A500012C01C9210C02F57304013963C932E9317
:100A6000129783E08C9387E0440F551F661F771F12
:100A70008A95D1F7706414964D935D936D937C9332
:100A8000179708951F93DC01FB019C91923008F4A5
:100A900047C08081823008F443C0943051F41196ED
:100AA0001C91843099F58181682F70E0611B710978
:100AB0003FC0843021F0923031F48230B9F181812D
:100AC000882389F12DC011961C9111978230F1F085
:100AD00081811817D9F412962D913C911397828138
:100AE00093818217930794F028173907BCF0149666
:100AF0008D919D910D90BC91A02D248135814681D1
:100B00005781281739074A075B0718F4112341F06A
:100B10000AC082179307A407B50740F4112319F000
:100B200061E070E005C06FEF7FEF02C060E070E051
:100B3000CB011F910895DF93CF93CDB7DEB72797F1
:100B40000FB6F894DEBF0FBECDBF89836A834B8397
:100B50008A81883008F0ECC08B81882309F075C049
:100B60008981282F30E03F832E838E819F818230C0
:100B7000910561F12E813F812330310534F48E815E
:100B80009F818130910569F0D3C02E813F81233050
:100B9000310589F18E819F818430910509F440C02F
:100BA000C7C0AAE3B0E0EAE3F0E08081482F8A8181
:100BB000282F30E081E090E0022E02C0880F991FBC
:100BC0000A94E2F7809584238C93B2C0A7E3B0E047
:100BD000E7E3F0E08081482F8A81282F30E081E030
:100BE00090E0022E02C0880F991F0A94E2F78095C8
:100BF00084238C939DC0A4E3B0E0E4E3F0E0808123
:100C0000482F8A81282F30E081E090E0022E02C038
:100C1000880F991F0A94E2F7809584238C9388C0EB
:100C2000A1E3B0E0E1E3F0E08081482F8A81282F42
:100C300030E081E090E0022E02C0880F991F0A94F4
:100C4000E2F7809584238C9373C08B81813009F007
:100C50006FC08981282F30E03D832C838C819D815A
:100C60008230910551F12C813D812330310534F4DE
:100C70008C819D818130910561F05AC02C813D812C
:100C80002330310571F18C819D8184309105E9F12A
:100C90004FC0AAE3B0E0EAE3F0E08081482F8A8108
:100CA000282F30E081E090E0022E02C0880F991FCB
:100CB0000A94E2F7842B8C933BC0A7E3B0E0E7E310
:100CC000F0E08081482F8A81282F30E081E090E099
:100CD000022E02C0880F991F0A94E2F7842B8C938E
:100CE00027C0A4E3B0E0E4E3F0E08081482F8A81EC
:100CF000282F30E081E090E0022E02C0880F991F7B
:100D00000A94E2F7842B8C9313C0A1E3B0E0E1E3F3
:100D1000F0E08081482F8A81282F30E081E090E048
:100D2000022E02C0880F991F0A94E2F7842B8C933D
:100D300027960FB6F894DEBF0FBECDBFCF91DF91DF
:100D40000895DF93CF9300D000D0CDB7DEB789836D
:100D50006A838981282F30E03C832B838B819C819F
:100D600082309105D9F02B813C812330310534F458
:100D70008B819C818130910561F01EC02B813C816B
:100D80002330310581F08B819C818430910581F085
:100D900013C0EAE3F0E08A8180830EC0E7E3F0E06D
:100DA0008A81808309C0E4E3F0E08A81808304C003
:100DB000E1E3F0E08A8180830F900F900F900F9015
:100DC000CF91DF910895DF93CF93CDB7DEB727970B
:100DD0000FB6F894DEBF0FBECDBF89836A834B8305
:100DE0008A81883008F0ECC08B81882309F075C0B7
:100DF0008981282F30E03F832E838E819F8182302E
:100E0000910561F12E813F812330310534F48E81CB
:100E10009F818130910569F0D3C02E813F812330BD
:100E2000310589F18E819F818430910509F440C09C
:100E3000C7C0ABE3B0E0EBE3F0E08081482F8A81EC
:100E4000282F30E081E090E0022E02C0880F991F29
:100E50000A94E2F7809584238C93B2C0A8E3B0E0B3
:100E6000E8E3F0E08081482F8A81282F30E081E09C
:100E700090E0022E02C0880F991F0A94E2F7809535
:100E800084238C939DC0A5E3B0E0E5E3F0E080818E
:100E9000482F8A81282F30E081E090E0022E02C0A6
:100EA000880F991F0A94E2F7809584238C9388C059
:100EB000A2E3B0E0E2E3F0E08081482F8A81282FAE
:100EC00030E081E090E0022E02C0880F991F0A9462
:100ED000E2F7809584238C9373C08B81813009F075
:100EE0006FC08981282F30E03D832C838C819D81C8
:100EF0008230910551F12C813D812330310534F44C
:100F00008C819D818130910561F05AC02C813D8199
:100F10002330310571F18C819D8184309105E9F197
:100F20004FC0ABE3B0E0EBE3F0E08081482F8A8173
:100F3000282F30E081E090E0022E02C0880F991F38
:100F40000A94E2F7842B8C933BC0A8E3B0E0E8E37B
:100F5000F0E08081482F8A81282F30E081E090E006
:100F6000022E02C0880F991F0A94E2F7842B8C93FB
:100F700027C0A5E3B0E0E5E3F0E08081482F8A8157
:100F8000282F30E081E090E0022E02C0880F991FE8
:100F90000A94E2F7842B8C9313C0A2E3B0E0E2E35F
:100FA000F0E08081482F8A81282F30E081E090E0B6
:100FB000022E02C0880F991F0A94E2F7842B8C93AB
:100FC00027960FB6F894DEBF0FBECDBFCF91DF914D
:100FD0000895DF93CF9300D000D0CDB7DEB78983DB
:100FE0006A838981282F30E03C832B838B819C810D
:100FF00082309105D9F02B813C812330310534F4C6
:101000008B819C818130910561F01EC02B813C81D8
:101010002330310581F08B819C818430910581F0F2
:1010200013C0EBE3F0E08A8180830EC0E8E3F0E0D8
:101030008A81808309C0E5E3F0E08A81808304C06F
:10104000E2E3F0E08A8180830F900F900F900F9081
:10105000CF91DF910895DF93CF9300D000D00F920E
:10106000CDB7DEB78A836B8319828A81282F30E05F
:101070003D832C834C815D814230510541F18C814F
:101080009D818330910534F42C813D8121303105DF
:1010900061F052C04C815D814330510551F18C812A
:1010A0009D8184309105B9F147C0E9E3F0E080818A
:1010B000282F30E08B81882F90E0A90102C0559540
:1010C00047958A95E2F7CA018170898335C0E6E3C6
:1010D000F0E08081282F30E08B81882F90E0A901FB
:1010E00002C0559547958A95E2F7CA0181708983B8
:1010F00023C0E3E3F0E08081282F30E08B81882F4C
:1011000090E0A90102C0559547958A95E2F7CA017A
:101110008170898311C0E0E3F0E08081282F30E006
:101120008B81882F90E0A90102C0559547958A953B
:10113000E2F7CA018170898389810F900F900F9027
:101140000F900F90CF91DF910895DF93CF93CDB79C
:10115000DEB72F970FB6F894DEBF0FBECDBF8F87D7
:1011600083E060E040E00E94E30683E061E040E06D
:101170000E94E30681E06F850E94E90783E062E058
:1011800041E00E94E30680E090E0A0E0B0E48B87BD
:101190009C87AD87BE876B857C858D859E8520E08D
:1011A00030E04AEF54E40E941702DC01CB018F8348
:1011B0009887A987BA876F81788589859A8520E085
:1011C00030E040E85FE30E94710388232CF481E063
:1011D00090E09E838D833FC06F81788589859A8555
:1011E00020E03FEF4FE757E40E94110318164CF53B
:1011F0006B857C858D859E8520E030E040E251E462
:101200000E941702DC01CB01BC01CD010E9441000C
:10121000DC01CB019E838D830FC088EC90E09C8322
:101220008B838B819C810197F1F79C838B838D81CC
:101230009E8101979E838D838D819E81009769F7A2
:1012400014C06F81788589859A850E944100DC01F0
:10125000CB019E838D838D819E819A838983898131
:101260009A810197F1F79A83898383E062E040E0F5
:101270000E94E3062F960FB6F894DEBF0FBECDBFD7
:10128000CF91DF910895DF93CF93CDB7DEB72F973E
:101290000FB6F894DEBF0FBECDBF8F8783E060E04E
:1012A00041E00E94E30683E061E040E00E94E30643
:1012B00081E06F850E94E90783E062E041E00E94DF
:1012C000E30680E090E0A0E0B0E48B879C87AD87E8
:1012D000BE876B857C858D859E8520E030E04AEF5A
:1012E00054E40E941702DC01CB018F839887A98701
:1012F000BA876F81788589859A8520E030E040E85B
:101300005FE30E94710388232CF481E090E09E83C8
:101310008D833FC06F81788589859A8520E03FEF76
:101320004FE757E40E94110318164CF56B857C8536
:101330008D859E8520E030E040E251E40E94170256
:10134000DC01CB01BC01CD010E944100DC01CB01DD
:101350009E838D830FC088EC90E09C838B838B8170
:101360009C810197F1F79C838B838D819E810197EE
:101370009E838D838D819E81009769F714C06F8154
:10138000788589859A850E944100DC01CB019E8386
:101390008D838D819E819A83898389819A8101972A
:1013A000F1F79A83898383E062E040E00E94E306DC
:1013B0002F960FB6F894DEBF0FBECDBFCF91DF9151
:1013C0000895DF93CF93CDB7DEB72E970FB6F8947D
:1013D000DEBF0FBECDBF81E06FEF0E94A10683E0AC
:1013E00060E041E00E949B0583E061E041E00E94F3
:1013F0009B0583E062E041E00E949B0580E090E075
:10140000A0E2B2E48B879C87AD87BE876B857C8525
:101410008D859E8520E030E04AEF54E40E9417025B
:10142000DC01CB018F839887A987BA876F81788584
:1014300089859A8520E030E040E85FE30E947103EF
:1014400088232CF481E090E09E838D833FC06F81E0
:10145000788589859A8520E03FEF4FE757E40E9421
:10146000110318164CF56B857C858D859E8520E0D3
:1014700030E040E251E40E941702DC01CB01BC01E4
:10148000CD010E944100DC01CB019E838D830FC002
:1014900088EC90E09C838B838B819C810197F1F792
:1014A0009C838B838D819E8101979E838D838D810B
:1014B0009E81009769F714C06F81788589859A8528
:1014C0000E944100DC01CB019E838D838D819E8132
:1014D0009A83898389819A810197F1F79A83898315
:1014E00088E30E94A5088CE00E94A50881E00E9484
:1014F000A5082E960FB6F894DEBF0FBECDBFCF91D4
:10150000DF910895DF93CF9300D00F92CDB7DEB770
:101510008A836B838A81882319F48B81898306C02F
:101520008A81813019F48B81805C8983898180581C
:101530000E94A5080F900F900F90CF91DF91089512
:10154000DF93CF9300D00F92CDB7DEB79B838A8312
:101550000EC08981282F30E08A819B81FC01E20F37
:10156000F31F80810E94430989818F5F898389816C
:10157000282F30E08A819B81FC01E20FF31F8081DC
:10158000882339F70F900F900F90CF91DF91089536
:10159000DF93CF93CDB7DEB727970FB6F894DEBFB2
:1015A0000FBECDBF9C838B836D834E832F838D8134
:1015B000882F90E0880F991F880F991F880F991F17
:1015C0008A838A81805C0E94A50819820EC0898165
:1015D000282F30E08B819C81FC01E20FF31F80817A
:1015E0000E94430989818F5F89838981883078F3DC
:1015F0008E816F810E94820A8D810E944309279605
:101600000FB6F894DEBF0FBECDBFCF91DF91089526
:10161000DF93CF93CDB7DEB729970FB6F894DEBF2F
:101620000FBECDBF6E837F83888799871D8280E040
:101630009AECAAE9BBE389839A83AB83BC8350C04D
:101640008E819F81A885B98529813A814B815C81F2
:10165000BC01CD010E949A14DA01C9010097A105CD
:10166000B10531F18E819F81A885B98529813A81A3
:101670004B815C81BC01CD010E949A14DA01C90141
:10168000805D0E9443098E819F81A885B98529814B
:101690003A814B815C81BC01CD010E949A14DC012E
:1016A000CB018E839F83A887B98781E08D8306C095
:1016B0008D81813019F480E30E94430989819A81E8
:1016C000AB81BC812AE030E040E050E0BC01CD01BC
:1016D0000E949A14DA01C90189839A83AB83BC837F
:1016E00089819A81AB81BC810097A105B10509F080
:1016F000A7CF29960FB6F894DEBF0FBECDBFCF910E
:10170000DF9108950F931F93DF93CF93CDB7DEB78B
:10171000C75FD0400FB6F894DEBF0FBECDBF0E94AA
:10172000E109CE0187559F4FC751DF4F99838883C9
:10173000C95ED0408BE990E0C551DF4F9983888323
:10174000CB5ED04098E0C351DF4F9883CD5ED04050
:10175000C551DF4FA881B981CB5ED0400C90C551F7
:10176000DF4FE881F981CB5ED0403196C551DF4F24
:10177000F983E883CB5ED040C751DF4FA881B981A0
:10178000C95ED0400C92C751DF4FE881F981C95E34
:10179000D0403196C751DF4FF983E883C95ED0400E
:1017A000C351DF4FF881CD5ED040F150C351DF4FC0
:1017B000F883CD5ED040C351DF4F8881CD5ED040ED
:1017C000882331F6CE018F549F4FC251DF4F99834A
:1017D0008883CE5ED040A3E9B0E0C051DF4FB9832B
:1017E000A883C05FD040B8E0CE50DF4FB883C25F5F
:1017F000D040C051DF4FE881F981C05FD040008008
:10180000C051DF4F88819981C05FD0400196C0519F
:10181000DF4F99838883C05FD040C251DF4FA881DA
:10182000B981CE5ED0400C92C251DF4FE881F98180
:10183000CE5ED0403196C251DF4FF983E883CE5E51
:10184000D040CE50DF4FF881C25FD040F150CE5033
:10185000DF4FF883C25FD040CE50DF4F8881C25F38
:10186000D040882331F680E060E00E94820A80E662
:1018700090E00E94A00ACE018F549F4F60E040E0AC
:101880002EE00E94C80AFE01EB55FF4F80E090E871
:10189000ABE3B5E480839183A283B3838E010F55BC
:1018A0001F4FFE01EB55FF4F608171818281938153
:1018B00020E030E04AEF54E40E941702DC01CB0143
:1018C000F80180839183A283B383FE01EF55FF4F1C
:1018D000608171818281938120E030E040E85FE3A4
:1018E0000E947103882344F4FE01E156FF4F81E01A
:1018F00090E09183808364C0FE01EF55FF4F6081CB
:1019000071818281938120E03FEF4FE757E40E948D
:10191000110318160CF043C0FE01EB55FF4F608118
:1019200071818281938120E030E040E251E40E94A5
:101930001702DC01CB018E0101561F4FBC01CD0106
:101940000E944100DC01CB01F801918380831FC01C
:10195000FE01E356FF4F88EC90E091838083FE0107
:10196000E356FF4F808191810197F1F7FE01E35625
:10197000FF4F91838083DE01A156BF4FFE01E156E8
:10198000FF4F80819181019711969C938E93FE0168
:10199000E156FF4F808191810097D1F627C08E01DB
:1019A00001561F4FFE01EF55FF4F6081718182810B
:1019B00093810E944100DC01CB01F8019183808377
:1019C000DE01A556BF4FFE01E156FF4F8081918198
:1019D0008D939C93FE01E556FF4F80819181019785
:1019E000F1F7FE01E556FF4F9183808381E00E946D
:1019F000A508CE0187549F4FCD50DF4F9983888330
:101A0000C35FD0408BE890E0CB50DF4F9983888351
:101A1000C55FD04098E0C950DF4F9883C75FD04082
:101A2000CB50DF4FA881B981C55FD0400C90CB501F
:101A3000DF4FE881F981C55FD0403196CB50DF4F51
:101A4000F983E883C55FD040CD50DF4FA881B981CD
:101A5000C35FD0400C92CD50DF4FE881F981C35F66
:101A6000D0403196CD50DF4FF983E883C35FD0403B
:101A7000C950DF4FF881C75FD040F150C950DF4FE8
:101A8000F883C75FD040C950DF4F8881C75FD0401F
:101A9000882331F6CE018F539F4F28E0FC01DF01F0
:101AA000822F1D928A95E9F7FE01EF53FF4F81E0E7
:101AB0008783CE0187539F4F28E0FC01DF01822FEF
:101AC0001D928A95E9F7FE01E753FF4F82E0878375
:101AD000CE018F529F4F28E0FC01DF01822F1D9223
:101AE0008A95E9F7FE01EF52FF4F84E08783CE012C
:101AF00087529F4F28E0FC01DF01822F1D928A95BB
:101B0000E9F7FE01E752FF4F88E08783CE018F514E
:101B10009F4F28E0FC01DF01822F1D928A95E9F793
:101B2000FE01EF51FF4F80E1878380E063E00E9478
:101B3000820A8DE690E00E94A00ACE0187549F4F52
:101B400062E041E02EE00E94C80ACE018F519F4F13
:101B500061E041E02EE00E94C80AFE01E956FF4F15
:101B600080E090E0AAEFB4E480839183A283B38302
:101B70008E010D561F4FFE01E956FF4F60817181A6
:101B80008281938120E030E04AEF54E40E94170202
:101B9000DC01CB01F80180839183A283B383FE0132
:101BA000ED56FF4F608171818281938120E030E0AA
:101BB00040E85FE30E947103882344F4FE01EF567E
:101BC000FF4F81E090E09183808364C0FE01ED5679
:101BD000FF4F608171818281938120E03FEF4FE769
:101BE00057E40E94110318160CF043C0FE01E95699
:101BF000FF4F608171818281938120E030E040E27B
:101C000051E40E941702DC01CB018E010F561F4FD9
:101C1000BC01CD010E944100DC01CB01F8019183A0
:101C200080831FC0FE01E157FF4F88EC90E0918355
:101C30008083FE01E157FF4F808191810197F1F789
:101C4000FE01E157FF4F91838083DE01AF56BF4F06
:101C5000FE01EF56FF4F80819181019711969C9371
:101C60008E93FE01EF56FF4F808191810097D1F650
:101C700027C08E010F561F4FFE01ED56FF4F6081AA
:101C80007181828193810E944100DC01CB01F801C6
:101C900091838083DE01A357BF4FFE01EF56FF4FB4
:101CA000808191818D939C93FE01E357FF4F80814A
:101CB00091810197F1F7FE01E357FF4F91838083F4
:101CC00081E00E94A508CE018F549F4F60E041E063
:101CD0002EE00E94C80ACE018F539F4F61E041E081
:101CE0002DE00E94C80AFE01E757FF4F80E090E018
:101CF000AAEFB3E480839183A283B3838E010B5751
:101D00001F4FFE01E757FF4F6081718182819381F0
:101D100020E030E04AEF54E40E941702DC01CB01DE
:101D2000F80180839183A283B383FE01EB57FF4FB9
:101D3000608171818281938120E030E040E85FE33F
:101D40000E947103882344F4FE01ED57FF4F81E0A8
:101D500090E09183808364C0FE01EB57FF4F608168
:101D600071818281938120E03FEF4FE757E40E9429
:101D7000110318160CF043C0FE01E757FF4F6081B6
:101D800071818281938120E030E040E251E40E9441
:101D90001702DC01CB018E010D571F4FBC01CD0195
:101DA0000E944100DC01CB01F801918380831FC0B8
:101DB000FE01EF57FF4F88EC90E091838083FE0196
:101DC000EF57FF4F808191810197F1F7FE01EF57A7
:101DD000FF4F91838083DE01AD57BF4FFE01ED576A
:101DE000FF4F80819181019711969C938E93FE0104
:101DF000ED57FF4F808191810097D1F627C08E016A
:101E00000D571F4FFE01EB57FF4F6081718182819B
:101E100093810E944100DC01CB01F8019183808312
:101E2000DE01A158BF4FFE01ED57FF4F8081918128
:101E30008D939C93FE01E158FF4F80819181019722
:101E4000F1F7FE01E158FF4F91838083CE01875364
:101E50009F4F61E041E02DE00E94C80AFE01E55875
:101E6000FF4F80E090E0AAEFB3E480839183A283E8
:101E7000B3838E0109581F4FFE01E558FF4F608163
:101E800071818281938120E030E04AEF54E40E9426
:101E90001702DC01CB01F80180839183A283B38315
:101EA000FE01E958FF4F608171818281938120E0BA
:101EB00030E040E85FE30E947103882344F4FE01B0
:101EC000EB58FF4F81E090E09183808364C0FE0176
:101ED000E958FF4F608171818281938120E03FEF5B
:101EE0004FE757E40E94110318160CF043C0FE019F
:101EF000E558FF4F608171818281938120E030E05D
:101F000040E251E40E941702DC01CB018E010B5824
:101F10001F4FBC01CD010E944100DC01CB01F80143
:101F2000918380831FC0FE01ED58FF4F88EC90E045
:101F300091838083FE01ED58FF4F8081918101974D
:101F4000F1F7FE01ED58FF4F91838083DE01AB581E
:101F5000BF4FFE01EB58FF4F808191810197119691
:101F60009C938E93FE01EB58FF4F808191810097E7
:101F7000D1F627C08E010B581F4FFE01E958FF4FC5
:101F800060817181828193810E944100DC01CB01DB
:101F9000F80191838083DE01AF58BF4FFE01EB58FB
:101FA000FF4F808191818D939C93FE01EF58FF4FED
:101FB000808191810197F1F7FE01EF58FF4F9183E6
:101FC0008083CE018F529F4F61E041E02DE00E945F
:101FD000C80AFE01E359FF4F80E090E0AAEFB3E4A6
:101FE00080839183A283B3838E0107591F4FFE0123
:101FF000E359FF4F608171818281938120E030E05D
:102000004AEF54E40E941702DC01CB01F8018083FF
:102010009183A283B383FE01E759FF4F60817181F1
:102020008281938120E030E040E85FE30E94710309
:10203000882344F4FE01E959FF4F81E090E0918349
:10204000808364C0FE01E759FF4F60817181828106
:10205000938120E03FEF4FE757E40E9411031816E9
:102060000CF043C0FE01E359FF4F60817181828112
:10207000938120E030E040E251E40E941702DC014D
:10208000CB018E0109591F4FBC01CD010E944100B7
:10209000DC01CB01F801918380831FC0FE01EB5965
:1020A000FF4F88EC90E091838083FE01EB59FF4F56
:1020B000808191810197F1F7FE01EB59FF4F9183E8
:1020C0008083DE01A959BF4FFE01E959FF4F80818E
:1020D0009181019711969C938E93FE01E959FF4FD0
:1020E000808191810097D1F627C08E0109591F4F39
:1020F000FE01E759FF4F60817181828193810E94C7
:102100004100DC01CB01F80191838083DE01AD59F0
:10211000BF4FFE01E959FF4F808191818D939C93C0
:10212000FE01ED59FF4F808191810197F1F7FE018A
:10213000ED59FF4F91838083CE0187529F4F61E01D
:1021400041E02DE00E94C80AFE01E15AFF4F80E005
:1021500090E0AAEFB3E480839183A283B3838E01DE
:10216000055A1F4FFE01E15AFF4F60817181828144
:10217000938120E030E04AEF54E40E941702DC0132
:10218000CB01F80180839183A283B383FE01E55ADA
:10219000FF4F608171818281938120E030E040E8CF
:1021A0005FE30E947103882344F4FE01E75AFF4F66
:1021B00081E090E09183808364C0FE01E55AFF4F87
:1021C000608171818281938120E03FEF4FE757E486
:1021D0000E94110318160CF043C0FE01E15AFF4F94
:1021E000608171818281938120E030E040E251E49E
:1021F0000E941702DC01CB018E01075A1F4FBC0160
:10220000CD010E944100DC01CB01F8019183808364
:102210001FC0FE01E95AFF4F88EC90E09183808354
:10222000FE01E95AFF4F808191810197F1F7FE018C
:10223000E95AFF4F91838083DE01A75ABF4FFE0109
:10224000E75AFF4F80819181019711969C938E935D
:10225000FE01E75AFF4F808191810097D1F627C098
:102260008E01075A1F4FFE01E55AFF4F60817181B1
:10227000828193810E944100DC01CB01F8019183AE
:102280008083DE01AB5ABF4FFE01E75AFF4F8081CA
:1022900091818D939C93FE01EB5AFF4F8081918138
:1022A0000197F1F7FE01EB5AFF4F91838083CE0136
:1022B0008F519F4F61E041E02DE00E94C80AFE016E
:1022C000EF5AFF4F80E090E0AAEFB3E48083918360
:1022D000A283B3838E01035B1F4FFE01EF5AFF4FB2
:1022E000608171818281938120E030E04AEF54E483
:1022F0000E941702DC01CB01F80180839183A28345
:10230000B383FE01E35BFF4F608171818281938122
:1023100020E030E040E85FE30E947103882344F44A
:10232000FE01E55BFF4F81E090E09183808364C014
:10233000FE01E35BFF4F608171818281938120E028
:102340003FEF4FE757E40E94110318160CF043C00B
:10235000FE01EF5AFF4F608171818281938120E0FD
:1023600030E040E251E40E941702DC01CB018E0113
:10237000055B1F4FBC01CD010E944100DC01CB0178
:10238000F801918380831FC0FE01E75BFF4F88EC5B
:1023900090E091838083FE01E75BFF4F8081918114
:1023A0000197F1F7FE01E75BFF4F91838083DE0128
:1023B000A55BBF4FFE01E55BFF4F808191810197D7
:1023C00011969C938E93FE01E55BFF4F8081918176
:1023D0000097D1F627C08E01055B1F4FFE01E35B1E
:1023E000FF4F60817181828193810E944100DC01F5
:1023F000CB01F80191838083DE01A95BBF4FFE0111
:10240000E55BFF4F808191818D939C93FE01E95B99
:10241000FF4F808191810197F1F7FE01E95BFF4F4A
:1024200091838083CE018F539F4F61E041E02CE088
:102430000E94C80AFE01ED5BFF4F80E090E0AAEF2A
:10244000B3E480839183A283B3838E01015C1F4F29
:10245000FE01ED5BFF4F608171818281938120E0FD
:1024600030E04AEF54E40E941702DC01CB01F8018E
:1024700080839183A283B383FE01FF966081718183
:102480008281938120E030E040E85FE30E947103A5
:1024900088232CF481E090E09EAF8DAF46C0FE0112
:1024A000FF96608171818281938120E03FEF4FE749
:1024B00057E40E941103181664F5FE01ED5BFF4F0F
:1024C000608171818281938120E030E040E251E4BB
:1024D0000E941702DC01CB01BC01CD010E9441002A
:1024E000DC01CB019EAF8DAF0FC088EC90E09CAFBC
:1024F0008BAF8BAD9CAD0197F1F79CAF8BAF8DADE2
:102500009EAD01979EAF8DAF8DAD9EAD009769F7E3
:1025100016C0FE01FF9660817181828193810E94C5
:102520004100DC01CB019EAF8DAF8DAD9EAD9AAF6A
:1025300089AF89AD9AAD0197F1F79AAF89AFCE0116
:1025400087539F4F61E041E02CE00E94C80A80E081
:1025500090E0AAEFB3E48DAB9EABAFABB8AF6DA983
:102560007EA98FA998AD20E030E04AEF54E40E94A4
:102570001702DC01CB0189AB9AABABABBCAB69A951
:102580007AA98BA99CA920E030E040E85FE30E9493
:10259000710388232CF481E090E098AB8FA73FC0B3
:1025A00069A97AA98BA99CA920E03FEF4FE757E4DE
:1025B0000E94110318164CF56DA97EA98FA998AD3C
:1025C00020E030E040E251E40E941702DC01CB0140
:1025D000BC01CD010E944100DC01CB0198AB8FA76B
:1025E0000FC088EC90E09EA78DA78DA59EA50197B2
:1025F000F1F79EA78DA78FA598A9019798AB8FA7F4
:102600008FA598A9009769F714C069A97AA98BA921
:102610009CA90E944100DC01CB0198AB8FA78FA53C
:1026200098A99CA78BA78BA59CA50197F1F79CA7C0
:102630008BA7CE018F529F4F61E041E02CE00E94BA
:10264000C80A80E090E0AAEFB3E48FA398A7A9A7F7
:10265000BAA76FA178A589A59AA520E030E04AEF36
:1026600054E40E941702DC01CB018BA39CA3ADA311
:10267000BEA36BA17CA18DA19EA120E030E040E82B
:102680005FE30E94710388232CF481E090E09AA319
:1026900089A33FC06BA17CA18DA19EA120E03FEF4B
:1026A0004FE757E40E94110318164CF56FA178A567
:1026B00089A59AA520E030E040E251E40E9417028B
:1026C000DC01CB01BC01CD010E944100DC01CB014A
:1026D0009AA389A30FC088EC90E098A38F8F8F8D69
:1026E00098A10197F1F798A38F8F89A19AA10197DB
:1026F0009AA389A389A19AA1009769F714C06BA135
:102700007CA18DA19EA10E944100DC01CB019AA376
:1027100089A389A19AA19E8F8D8F8D8D9E8D019702
:10272000F1F79E8F8D8FCE0187529F4F61E041E080
:102730002CE00E94C80A80E090E0AAEFB3E4898F01
:102740009A8FAB8FBC8F698D7A8D8B8D9C8D20E09D
:1027500030E04AEF54E40E941702DC01CB018D8B7C
:102760009E8BAF8BB88F6D897E898F89988D20E085
:1027700030E040E85FE30E94710388232CF481E09D
:1027800090E09C8B8B8B3FC06D897E898F89988D63
:1027900020E03FEF4FE757E40E94110318164CF575
:1027A000698D7A8D8B8D9C8D20E030E040E251E484
:1027B0000E941702DC01CB01BC01CD010E94410047
:1027C000DC01CB019C8B8B8B0FC088EC90E09A8B4B
:1027D000898B89899A890197F1F79A8B898B8B89E3
:1027E0009C8901979C8B8B8B8B899C89009769F7BF
:1027F00014C06D897E898F89988D0E944100DC010B
:10280000CB019C8B8B8B8B899C89988B8F878F8539
:1028100098890197F1F7988B8F87CE0187559F4F45
:1028200062E041E02CE00E94C80A80E090E0A8EC61
:10283000B2E48B879C87AD87BE876B857C858D8551
:102840009E8520E030E04AEF54E40E941702DC014C
:10285000CB018F839887A987BA876F81788589850F
:102860009A8520E030E040E85FE30E94710388230E
:102870002CF481E090E09E838D833FC06F8178854A
:1028800089859A8520E03FEF4FE757E40E941103C6
:1028900018164CF56B857C858D859E8520E030E093
:1028A00040E251E40E941702DC01CB01BC01CD01E2
:1028B0000E944100DC01CB019E838D830FC088EC18
:1028C00090E09C838B838B819C810197F1F79C83A3
:1028D0008B838D819E8101979E838D838D819E81C7
:1028E000009769F714C06F81788589859A850E9461
:1028F0004100DC01CB019E838D838D819E819A8373
:10290000898389819A810197F1F79A83898381E08C
:102910000E94A50889E790E00E94A00AC950DF4FF5
:102920000FB6F894DEBF0FBECDBFCF91DF911F91E0
:102930000F910895A1E21A2EAA1BBB1BFD010DC029
:10294000AA1FBB1FEE1FFF1FA217B307E407F5075F
:1029500020F0A21BB30BE40BF50B661F771F881F3B
:10296000991F1A9469F760957095809590959B01D1
:10297000AC01BD01CF0108952F923F924F925F921B
:102980006F927F928F929F92AF92BF92CF92DF927F
:10299000EF92FF920F931F93CF93DF93CDB7DEB7E4
:1029A000CA1BDB0B0FB6F894DEBF0FBECDBF099478
:1029B0002A88398848885F846E847D848C849B84CF
:1029C000AA84B984C884DF80EE80FD800C811B81DD
:1029D000AA81B981CE0FD11D0FB6F894DEBF0FBE0C
:0A29E000CDBFED010895F894FFCF7C
:1029EA0048692069616D2062656E646F00492070D4
:1029FA006C6179206B6F726100474F414C21212134
:102A0A002121000000000000000000040A0A040E50
:102A1A00040A09040A0A040E040A1100101010100C
:042A2A001010100078
:00000001FF
